:020000040000FA
:0400000064EF00F0B9
:100008005F82FACF64F0FBCF65F0E1CF66F0E2CF14
:1000180067F0D9CF68F0DACF69F0F6CF6AF0F7CF9A
:100028006BF0F8CF6CF0F5CF6DF0F2AC1EEF00F08E
:1000380020EF00F04EEF00F0A0A625EF00F027EF2C
:1000480000F03EEF00F0A1A62CEF00F02EEF00F03C
:100058003EEF00F002D83CEF00F005000001FA6E18
:10006800E351FD6EE451FE6EF850FF6EFA50120037
:100078004EEF00F09DA643EF00F045EF00F04EEF85
:1000880000F09EA64AEF00F04CEF00F04EEF00F0B3
:100098002EEF00F06DC0F5FF6CC0F8FF6BC0F7FFE6
:1000A8006AC0F6FF69C0DAFF68C0D9FF67C0E2FF1F
:1000B80066C0E1FF65C0FBFF64C0FAFF5F921100F4
:0400C80019EF13F029
:100F0000006461746F7574203D202564001B6300CC
:010F100000E0
:100F12008DC0A5F08EC0A6F08FC0A7F090C0A8F03B
:100F220091C0A9F092C0AAF093C0ABF094C0ACF00B
:100F32000001ACBF9FEF07F0A2EF07F0010EA3EF95
:100F420007F0000EA36FA46BA351A411D8B4ACEFA9
:100F520007F0AEEF07F0BEEF07F0AC1FAB1FAA1F02
:100F6200A91FA81FA71FA61FA56D000EA623A723B2
:100F7200A823A923AA23AB23AC23D6BFC3EF07F030
:100F8200C5EF07F0C6EF07F0D793D6BFD3EF07F050
:100F9200D65106E1D505D8B0D1EF07F0D3EF07F06F
:100FA200D9EF07F0000EA06F010E9F6FDDEF07F083
:100FB200D5C09FF0D6C0A0F0D3C0A1F0D4C0A2F09B
:100FC200A351A411D8A4E8EF07F0EAEF07F0F1EF7C
:100FD20007F0D7A5EFEF07F0F1EF07F0F4EF07F016
:100FE200A107D8A0A207000EAE6F1F0EAD6F000EB4
:100FF20001011F6F7AEF08F0AD07D8A0AE07000E0F
:10100200AD25D96E010EAE21DA6EA5C06EF0A6C076
:101012006FF0A7C070F0A8C071F0A9C072F0AAC0AA
:1010220073F0ABC074F0ACC075F00A0E766F000EB0
:10103200776F000E786F000E796F000E7A6F000ED8
:101042007B6F000E7C6F000E7D6FACEC0DF06EC0FE
:1010520095F06FC096F070C097F071C098F072C0B2
:1010620099F073C09AF074C09BF075C09CF095C063
:1010720080F097C081F020EC12F000018051300F17
:10108200DF6E9F07D8A0A007A107D8A0A207A5C01E
:101092006EF0A6C06FF0A7C070F0A8C071F0A9C032
:1010A20072F0AAC073F0ABC074F0ACC075F00A0E57
:1010B200766F000E776F000E786F000E796F000E5C
:1010C2007A6F000E7B6F000E7C6F000E7D6F23EC3B
:1010D2000CF06EC0A5F06FC0A6F070C0A7F071C092
:1010E200A8F072C0A9F073C0AAF074C0ABF075C0CA
:1010F200ACF00001AEBF86EF08F0AE5108E1AD05DD
:10110200D8A086EF08F088EF08F0B8EF08F0A551F4
:10111200A611A711A811A911AA11AB11AC11D8A43B
:1011220095EF08F097EF08F0FDEF07F0A0BFA4EFEE
:1011320008F0A05106E19F05D8B0A2EF08F0A4EF95
:1011420008F0FDEF07F0A2BFAFEF08F0A25108E1EF
:10115200A105D8A0AFEF08F0B1EF08F0B8EF08F0A2
:10116200D7B3B6EF08F0B8EF08F0FDEF07F0A351E0
:10117200A411D8A4BFEF08F0C1EF08F0C8EF08F03F
:10118200D7A5C6EF08F0C8EF08F0E6EF08F0AD0704
:10119200D8A0AE07A351A411D8A4D2EF08F0D4EF7F
:1011A20008F0DAEF08F0000E9E6F2B0E9D6FDEEF57
:1011B20008F0000E9E6F2D0E9D6F000EAD25D96EAC
:1011C200010EAE21DA6E9DC0DFFF8BC080F08CC0B5
:1011D20081F0000EAD25826F010EAE21836FA1C09A
:1011E20084F0A2C085F011EC0FF080C08BF081C0BA
:1011F2008CF0120020C038F021C039F022C03AF041
:1012020023C03BF024C03CF025C03DF026C03EF098
:1012120027C03FF03FBE10EF09F013EF09F0010EB7
:1012220014EF09F0000E366E376A36503710D8B414
:101232001DEF09F01FEF09F02FEF09F03F1E3E1ED0
:101242003D1E3C1E3B1E3A1E391E386C000E3922D2
:101252003A223B223C223D223E223F220001D6BFBF
:1012620035EF09F037EF09F038EF09F0D793D6BF21
:1012720045EF09F0D65106E1D505D8B043EF09F0A4
:1012820045EF09F04BEF09F0000E336E010E326E9E
:101292004FEF09F0D5C032F0D6C033F0D3C034F0EE
:1012A200D4C035F036503710D8A45AEF09F05CEFAD
:1012B20009F063EF09F0D7A561EF09F063EF09F0D8
:1012C20066EF09F03406D8A03506000E416E1F0EF7
:1012D200406E000E01011F6FEBEF09F04006D8A02F
:1012E2004106000E4024D96E010E4120DA6E38C04C
:1012F20001F039C002F03AC003F03BC004F03CC038
:1013020005F03DC006F03EC007F03FC008F00A0EEF
:10131200096E000E0A6E000E0B6E000E0C6E000EB1
:101322000D6E000E0E6E000E0F6E000E106E5FEC54
:101332000EF001C028F002C029F003C02AF004C058
:101342002BF005C02CF006C02DF007C02EF008C00F
:101352002FF028C013F02AC014F061EC12F01350E1
:10136200300FDF6E3206D8A033063406D8A0350619
:1013720038C001F039C002F03AC003F03BC004F0BB
:101382003CC005F03DC006F03EC007F03FC008F08B
:101392000A0E096E000E0A6E000E0B6E000E0C6E27
:1013A200000E0D6E000E0E6E000E0F6E000E106E11
:1013B200E8EC0CF001C038F002C039F003C03AF09A
:1013C20004C03BF005C03CF006C03DF007C03EF053
:1013D20008C03FF041BEF6EF09F0415008E1400479
:1013E200D8A0F6EF09F0F8EF09F029EF0AF038502B
:1013F20039103A103B103C103D103E103F10D8A45B
:1014020005EF0AF007EF0AF06FEF09F033BE14EFB1
:101412000AF0335006E13204D8B012EF0AF014EFAA
:101422000AF06FEF09F035BE1FEF0AF0355008E100
:101432003404D8A01FEF0AF021EF0AF029EF0AF0D6
:101442000001D7B327EF0AF029EF0AF06FEF09F096
:1014520036503710D8A430EF0AF032EF0AF03AEFE4
:101462000AF00001D7A538EF0AF03AEF0AF058EF78
:101472000AF04006D8A0410636503710D8A444EFEF
:101482000AF046EF0AF04CEF0AF0000E316E2B0E16
:10149200306E50EF0AF0000E316E2D0E306E000EDF
:1014A2004024D96E010E4120DA6E30C0DFFF1EC02B
:1014B20013F01FC014F0000E4024156E010E4120DF
:1014C200166E34C017F035C018F0DAEC0FF013C006
:1014D2001EF014C01FF01200B1C0D9FFB2C0DAFF73
:1014E200DECFF6FFDDCFF7FF0800F550250AD8A4BE
:1014F2007DEF0AF07FEF0AF02CEF0BF0B1C0D9FFBD
:10150200B2C0DAFFDE2A000EDD22000E0001D46F27
:10151200000ED36FD3C0D7F0D4C0D8F0D569D66946
:10152200B1C0D9FFB2C0DAFFDECFF6FFDDCFF7FFE1
:101532000800F550640AD8B4A1EF0AF0A3EF0AF04C
:10154200B5EF0AF0B1C0D9FFB2C0DAFFDECFF6FFC5
:10155200DDCFF7FF0800F550690AD8A4B3EF0AF00F
:10156200B5EF0AF0F5EF0AF0B1C0D9FFB2C0DAFF69
:10157200DE2A000EDD22B3C0D9FFB4C0DAFFDFCF0E
:10158200B5F0020EDE26DFCFB6F0000EDD22B5C0CA
:10159200D9FFB6C0DAFFDECFB7F0DDCFB8F0000E6C
:1015A200B8BFFF0EB96FBA6FBB6FBC6FBD6FBE6FB6
:1015B200AFC08BF0B0C08CF0B7C08DF0B8C08EF069
:1015C200B9C08FF0BAC090F0BBC091F0BCC092F02D
:1015D200BDC093F0BEC094F089EC07F08BC0AFF0B1
:1015E2008CC0B0F048EF0BF0B1C0D9FFB2C0DAFF47
:1015F200DECFF6FFDDCFF7FF0800F550250AD8A4AD
:1016020005EF0BF007EF0BF01FEF0BF0B1C0D9FFA6
:10161200B2C0DAFFDE2A000EDD22000E716F250E47
:10162200706FAFC072F0B0C073F03DEC10F0000EFE
:101632000001B06F010EAF6F48EF0BF0B1C0D9FFE0
:10164200B2C0DAFFDE2A000EDD22000EB06F000EFD
:10165200AF6F48EF0BF0B1C0D9FFB2C0DAFFDECFF7
:10166200F6FFDDCFF7FF0800F5500001706F716BD8
:10167200AFC072F0B0C073F03DEC10F0B1C0D9FF52
:10168200B2C0DAFFDE2A000EDD2218EF0BF01200E4
:1016920044C0D9FF45C0DAFFDECFF6FFDDCFF7FF4A
:1016A2000800F550250AD8A459EF0BF05BEF0BF0B8
:1016B20007EF0CF044C0D9FF45C0DAFFDE2A000E66
:1016C200DD22000E0001D46F000ED36FD3C0D7F01D
:1016D200D4C0D8F0D569D66944C0D9FF45C0DAFF75
:1016E200DECFF6FFDDCFF7FF0800F550640AD8B46D
:1016F2007DEF0BF07FEF0BF091EF0BF044C0D9FFC1
:1017020045C0DAFFDECFF6FFDDCFF7FF0800F55068
:10171200690AD8A48FEF0BF091EF0BF0D1EF0BF029
:1017220044C0D9FF45C0DAFFDE2A000EDD2246C0E2
:10173200D9FF47C0DAFFDFCF48F0020EDE26DFCF47
:1017420049F0000EDD2248C0D9FF49C0DAFFDECFE2
:101752004AF0DDCF4BF0000E4BBEFF0E4C6E4D6ECD
:101762004E6E4F6E506E516E42C01EF043C01FF05F
:101772004AC020F04BC021F04CC022F04DC023F0F3
:101782004EC024F04FC025F050C026F051C027F0C3
:10179200FBEC08F01EC042F01FC043F022EF0CF039
:1017A20044C0D9FF45C0DAFFDECFF6FFDDCFF7FF39
:1017B2000800F550250AD8A4E1EF0BF0E3EF0BF097
:1017C200FAEF0BF044C0D9FF45C0DAFFDE2A000E63
:1017D200DD22000E046E250E036E42C005F043C0EA
:1017E20006F089EC10F0000E436E010E426E22EFFD
:1017F2000CF044C0D9FF45C0DAFFDE2A000EDD221C
:10180200000E436E000E426E22EF0CF044C0D9FF70
:1018120045C0DAFFDECFF6FFDDCFF7FF0800F55057
:10182200036E046A42C005F043C006F089EC10F072
:1018320044C0D9FF45C0DAFFDE2A000EDD22F4EFF4
:101842000BF01200000E00017F6F7DBF2DEF0CF038
:101852002BEF0CF03FEF0CF07D1F7C1F7B1F7A1FDC
:10186200791F781F771F766D000E772378237923EF
:101872007A237B237C237D23010E7F6F75BF46EF86
:101882000CF044EF0CF058EF0CF0751F741F731F2F
:10189200721F711F701F6F1F6E6D000E6F237023FA
:1018A20071237223732374237523010E7F1B20EE91
:1018B20080F0070EDE6AE806FDE2765177117811B4
:1018C20079117A117B117C117D11D8B46BEF0CF078
:1018D2006DEF0CF0BFEF0CF0010E7E6F7BEF0CF0A2
:1018E200D89076377737783779377A377B377C37BE
:1018F2007D377E2B7DAF80EF0CF082EF0CF071EF25
:101902000CF0D89080378137823783378437853718
:101912008637873776516E5D77516F597851705996
:10192200795171597A5172597B5173597C51745959
:101932007D517559D8A0A0EF0CF0A2EF0CF0B3EFD7
:101942000CF076516E5F77516F5B7851705B795115
:10195200715B7A51725B7B51735B7C51745B7D511D
:10196200755B8081D8907D337C337B337A337933D6
:101972007833773376337E2F82EF0CF07F51D8B4F1
:10198200C5EF0CF0C7EF0CF0D7EF0CF0871F861FE6
:10199200851F841F831F821F811F806D000E81237C
:1019A20082238323842385238623872380C06EF0AA
:1019B20081C06FF082C070F083C071F084C072F099
:1019C20085C073F086C074F087C075F01200000EF7
:1019D200126E10BEF1EF0CF0EFEF0CF003EF0DF012
:1019E200101E0F1E0E1E0D1E0C1E0B1E0A1E096C53
:1019F200000E0A220B220C220D220E220F2210228E
:101A0200010E126E08BE0AEF0DF008EF0DF01CEF8A
:101A12000DF0081E071E061E051E041E031E021ED2
:101A2200016C000E02220322042205220622072252
:101A32000822010E121A20EE13F0070EDE6AE806E3
:101A4200FDE209500A100B100C100D100E100F10B1
:101A52001010D8B42FEF0DF031EF0DF083EF0DF031
:101A6200010E116E3FEF0DF0D89009360A360B3693
:101A72000C360D360E360F361036112A10AE44EFE4
:101A82000DF046EF0DF035EF0DF0D8901336143609
:101A9200153616361736183619361A360950015CBD
:101AA2000A5002580B5003580C5004580D50055858
:101AB2000E5006580F50075810500858D8A064EF1F
:101AC2000DF066EF0DF077EF0DF00950015E0A5050
:101AD200025A0B50035A0C50045A0D50055A0E501C
:101AE200065A0F50075A1050085A1380D8901032D5
:101AF2000F320E320D320C320B320A320932112EF3
:101B020046EF0DF01250D8B489EF0DF08BEF0DF0C7
:101B12009BEF0DF01A1E191E181E171E161E151EFB
:101B2200141E136C000E14221522162217221822DC
:101B320019221A2213C001F014C002F015C003F0DA
:101B420016C004F017C005F018C006F019C007F05F
:101B52001AC008F01200000E00017F6F75BFB6EFC9
:101B62000DF0B4EF0DF0C8EF0DF0751F741F731F69
:101B7200721F711F701F6F1F6E6D000E6F23702317
:101B820071237223732374237523010E7F6F7DBF2C
:101B9200CFEF0DF0CDEF0DF0DFEF0DF07D1F7C1FCD
:101BA2007B1F7A1F791F781F771F766D000E7723B0
:101BB200782379237A237B237C237D237651771123
:101BC200781179117A117B117C117D11D8B4ECEF67
:101BD2000DF0EEEF0DF036EF0EF0010E7E6FFCEF22
:101BE2000DF0D89076377737783779377A377B3771
:101BF2007C377D377E2B7DAF01EF0EF003EF0EF0C9
:101C0200F2EF0DF076516E5D77516F597851705940
:101C1200795171597A5172597B5173597C51745966
:101C22007D517559D8A018EF0EF01AEF0EF02AEF79
:101C32000EF076516E5F77516F5B7851705B795120
:101C4200715B7A51725B7B51735B7C51745B7D512A
:101C5200755BD8907D337C337B337A337933783339
:101C6200773376337E2F03EF0EF07F51D8B43CEFFB
:101C72000EF03EEF0EF04EEF0EF0751F741F731F45
:101C8200721F711F701F6F1F6E6D000E6F23702306
:101C9200712372237323742375236EC06EF06FC099
:101CA2006FF070C070F071C071F072C072F073C0EA
:101CB20073F074C074F075C075F01200000E126EED
:101CC20008BE68EF0EF066EF0EF07AEF0EF0081E17
:101CD200071E061E051E041E031E021E016C000EB8
:101CE2000222032204220522062207220822010ED2
:101CF200126E10BE81EF0EF07FEF0EF091EF0EF03C
:101D0200101E0F1E0E1E0D1E0C1E0B1E0A1E096C2F
:101D1200000E0A220B220C220D220E220F2210226A
:101D220009500A100B100C100D100E100F1010108D
:101D3200D8B49EEF0EF0A0EF0EF0E8EF0EF0010E19
:101D4200116EAEEF0EF0D89009360A360B360C360D
:101D52000D360E360F361036112A10AEB3EF0EF0D6
:101D6200B5EF0EF0A4EF0EF00950015C0A500258D4
:101D72000B5003580C5004580D5005580E5006587D
:101D82000F50075810500858D8A0CAEF0EF0CCEFE9
:101D92000EF0DCEF0EF00950015E0A50025A0B50B1
:101DA200035A0C50045A0D50055A0E50065A0F5041
:101DB200075A1050085AD89010320F320E320D3294
:101DC2000C320B320A320932112EB5EF0EF01250DC
:101DD200D8B4EEEF0EF0F0EF0EF000EF0FF0081EA9
:101DE200071E061E051E041E031E021E016C000EA7
:101DF200022203220422052206220722082201C00F
:101E020001F002C002F003C003F004C004F005C0F8
:101E120005F006C006F007C007F008C008F012007F
:101E22000001D7A117EF0FF019EF0FF023EF0FF01A
:101E320082C079F083C07AF080C07BF081C07CF0F0
:101E4200B7EC11F0000185BF29EF0FF02BEF0FF077
:101E520031EF0FF084C089F085C08AF035EF0FF0C2
:101E6200000E8A6F000E896F000E886F000E876F5A
:101E720048EF0FF0000E716F200E706F80C072F08D
:101E820081C073F03DEC10F00001874B882B895123
:101E9200875D8851800A866F8A51800A8659D8A048
:101EA20055EF0FF057EF0FF03BEF0FF0D7B15CEFAC
:101EB2000FF05EEF0FF068EF0FF082C079F083C091
:101EC2007AF080C07BF081C07CF0B7EC11F082C068
:101ED2006EF083C06FF081EC12F0000189516E2523
:101EE200806F8A516F21816F12004CEC14F04AEC22
:101EF20014F00001E86FBDEC13F00009D8B484EFD0
:101F02000FF086EF0FF08AEF0FF0010E5E6EC0EF5A
:101F12000FF0020E5E6EC0EF0FF0A9EC13F0000995
:101F2200D8A496EF0FF098EF0FF09CEF0FF0D1ECE2
:101F320012F0A0EF0FF0B9EC12F046EC14F0000E24
:101F42005D6ED5EF0FF0C7EC13F00009D8B4ACEF1B
:101F52000FF0AEEF0FF0BCEF0FF0B3EC13F000098F
:101F6200D8B4B6EF0FF0B8EF0FF0D5EF0FF0E9EC01
:101F720012F0D5EF0FF001EC13F0A0EF0FF05E506E
:101F8200026E036A0350000AD8B4CAEF0FF0D5EF0D
:101F92000FF00250010AD8B48EEF0FF0030AD8B442
:101FA200A4EF0FF0D5EF0FF05DC05EF048EC14F037
:101FB20012000001D7A1E0EF0FF0E2EF0FF0ECEF1B
:101FC2000FF015C00CF016C00DF013C00EF014C0C7
:101FD2000FF0FEEC11F018BEF1EF0FF0F3EF0FF07F
:101FE200F9EF0FF017C01CF018C01DF0FDEF0FF055
:101FF200000E1D6E000E1C6E000E1B6E000E1A6E81
:102002000FEF10F0000E046E200E036E13C005F0E9
:1020120014C006F089EC10F01A4A1B2A1C501A5CF4
:102022001B50800A196E1D50800A1958D8A01CEF47
:1020320010F01EEF10F003EF10F00001D7B124EF03
:1020420010F026EF10F030EF10F015C00CF016C0B3
:102052000DF013C00EF014C00FF0FEEC11F015C01D
:1020620001F016C002F09EEC12F01C500124136E17
:102072001D500220146E1200000172517311D8B467
:1020820045EF10F047EF10F050EF10F0725173115E
:10209200D8A44EEF10F050EF10F055EF10F0705141
:1020A200E2EC13F088EF10F020EE04F07251D92622
:1020B2007351DA22DE50DE10D8B462EF10F064EF12
:1020C20010F07FEF10F020EE04F07251D926735118
:1020D200DA2210EE02F07251E1267351E222DE5052
:1020E200E65CE650800A786FDE50800A7859D8B0F4
:1020F2007DEF10F07FEF10F088EF10F020EE02F08D
:102102007251D9267351DA22DE2A000EDD22120024
:1021120005500610D8B490EF10F092EF10F09BEF3C
:1021220010F005500610D8A499EF10F09BEF10F0B4
:10213200A0EF10F0035020EC14F0D3EF10F020EEDB
:1021420004F00550D9260650DA22DE50DE10D8B44B
:10215200ADEF10F0AFEF10F0CAEF10F020EE04F088
:102162000550D9260650DA2210EE02F00550E1267B
:102172000650E222DE50E65CE650800A0B6EDE502C
:10218200800A0B58D8B0C8EF10F0CAEF10F0D3EFA6
:1021920010F020EE02F00550D9260650DA22DE2A8F
:1021A200000EDD2212006BEC13F00A0E07EC14F0A5
:1021B2007F0E02EC14F0EC0E00016E6F1E0E6F6FBC
:1021C20011EC14F0000E00016E6F000E6F6F16EC32
:1021D20014F0680E00016E6F280E6F6FF8EC13F0AA
:1021E200540E00016E6F280E6F6F0CEC14F05E0E31
:1021F20000016E6F280E6F6F1BEC14F0A00E000131
:102202006E6F280E6F6FFDEC13F044EC14F01200A9
:10221200C1C0C5F0C2C0C6F0000E0001D26F000EF0
:10222200D16F27EF11F0BFC0AFF0C0C0B0F0C50E44
:10223200B16F000EB26FC3C0B3F0C4C0B4F06DECA6
:102242000AF00001AF51D127B051D223C5C0F6FF29
:10225200C6C0F7FF0800F5500009D8A433EF11F00B
:1022620035EF11F014EF11F0D1C0BFF0D2C0C0F0C1
:10227200120054C058F055C059F0000E0001D26F40
:10228200000ED16F58EF11F052C042F053C043F02C
:10229200580E446E000E456E56C046F057C047F0C9
:1022A20049EC0BF042500001D1274350D22358C0D1
:1022B200F6FF59C0F7FF0800F5500009D8A464EFF3
:1022C20011F066EF11F045EF11F0D1C052F0D2C01B
:1022D20053F012007AEC13F0A0869D863CEC14F0C9
:1022E200D4EC10F0220E00016E6F230E6F6F11EC12
:1022F20014F00D0E0001C76F0F0EC86F2FEC13F014
:10230200F28EF28C000E41EC12F000016EC0CDF0A4
:102312006FC0CEF0CF6BD06B83EF11F064EF00F0A3
:10232200010E5A6E0F0E5B6E57EC13F03FEC14F079
:102332000009D8A49FEF11F0A1EF11F0B6EF11F050
:102342003FEC14F0E806D8A4A9EF11F0ABEF11F0BE
:10235200B6EF11F0050E25EC14F00001CD5125EC7D
:1023620014F00001CD5125EC14F01200000E000112
:102372007F6F000E7E6FCAEF11F07DC070F0716B3F
:102382007BC072F07CC073F03DEC10F000017E4B1C
:102392007F2B7E517925D96E7F517A21DA6EDF50FB
:1023A2007D6F7D51D8A4D8EF11F0DAEF11F0BEEFB6
:1023B20011F01200080EA76E900EAB6E240EAC6EDA
:1023C200080EAF6E020E7D6E000E00016E6F000EE3
:1023D2006F6FEEEC13F0000E00016E6F000E6F6F68
:1023E200E9EC13F0000E00016E6F000E6F6FF3EC5C
:1023F20013F0000E0001E96F1200000E126E000EC3
:10240200116E0FEF12F010C003F0046A0EC005F057
:102412000FC006F089EC10F0114A122A11500C2458
:10242200D96E12500D20DA6EDF50106E1050D8A403
:102432001DEF12F01FEF12F004EF12F01200000174
:1024420081BF2EEF12F0815106E18005D8B02CEF4A
:1024520012F02EEF12F03CEF12F080C082F081C039
:1024620083F0821F831F824B832B82C080F083C044
:1024720081F040EF12F080C080F081C081F0120044
:102482000001726F72C070F0000170477047C25055
:102492007019830B7019C26EC280C282C2B254EF2D
:1024A20012F056EF12F04FEF12F0C4500001716FAC
:1024B200706BC35070256E6F000E71216F6F12002A
:1024C20014BE6EEF12F0145006E11304D8B06CEF94
:1024D20012F06EEF12F07CEF12F013C015F014C080
:1024E20016F0151E161E154A162A15C013F016C030
:1024F20014F080EF12F013C013F014C014F01200A5
:102502006EC070F06FC071F08AEF12F000016E4B76
:102512006F2B6EC0D9FF6FC0DAFFDF50D8A494EFE3
:1025220012F096EF12F087EF12F0000170516E5D1B
:102532006E6F71516F596F6F120001C003F002C0CC
:1025420004F0A6EF12F0014A022A01C0D9FF02C02C
:10255200DAFFDF50D8A4B0EF12F0B2EF12F0A4EF1E
:1025620012F00350015C016E04500258026E120018
:102572000001D951DA11D8B4C1EF12F0C3EF12F051
:10258200D0EF12F002D8D0EF12F00500FA6ED95156
:10259200FD6EDA51FE6EF850FF6EFA501200120014
:1025A2000001DF51E011D8B4D9EF12F0DBEF12F0E5
:1025B200E8EF12F002D8E8EF12F00500FA6EDF51F0
:1025C200FD6EE051FE6EF850FF6EFA5012001200DE
:1025D2000001E151E211D8B4F1EF12F0F3EF12F081
:1025E20000EF13F002D800EF13F00500FA6EE1518C
:1025F200FD6EE251FE6EF850FF6EFA5012001200AC
:102602000001DD51DE11D8B409EF13F00BEF13F026
:1026120018EF13F002D818EF13F00500FA6EDD512F
:10262200FD6EDE51FE6EF850FF6EFA50120012007F
:1026320001EE00F0200EEE6AE806FDE100EECDF0BC
:102642001D0EEE6AE806FDE15E6A5D6A5C6A5F90F5
:102652005F92000EF86E00016BEF11F0C90E0001DF
:10266200CB6F000ECC6F000EBF6F000EC06FC7C0E5
:10267200C1F0C8C0C2F0CB0EC36F000EC46F09EC2C
:1026820011F01200000E896E000E8A6E000E8B6E23
:10269200EF0E926E9368BF0E946E1F0E0F015D6F68
:1026A200070E5C6F000E5B6FF18E12005C0E000174
:1026B200626F000E636F000E526E000E536E5AC0B0
:1026C20054F05BC055F0620E566E000E576E3AEC37
:1026D20011F01200C6BA70EF13F072EF13F079EF37
:1026E20013F0000EC76E060EC612000EC56EC68A25
:1026F200120042EC14F0DAEC13F043EC13F0D1ECDC
:1027020013F093EC13F0DBEC11F0120000016E6F8A
:102712009EA88EEF13F090EF13F089EF13F06EC0C6
:10272200ADFF1200010EC26E100EC16E800EC06EA1
:10273200000EC46E000EC36E1200016E9EA8A4EFBE
:1027420013F0A6EF13F09FEF13F001C0ADFF1200DC
:10275200C6BEAEEF13F0B1EF13F0010EB2EF13F0FD
:10276200000E1200C7B0B8EF13F0BBEF13F0010E6A
:10277200BCEF13F0000E1200C7B4C2EF13F0C5EFA6
:1027820013F0010EC6EF13F0000E1200C7BACCEF21
:1027920013F0CFEF13F0010ED0EF13F0000E120082
:1027A200600ED36E000ED26E000E9B6E000E9A6EFD
:1027B2001200800EC76E360EC612010EC56EC69A84
:1027C200120000016F6F00016F5187EC13F01200CD
:1027D2006EC0ECF06FC0EDF012006EC0EEF06FC094
:1027E200EFF012006EC0EAF06FC0EBF012006EC0A4
:1027F200DFF06FC0E0F012006EC0D9F06FC0DAF007
:10280200120000016E6F6EC0C8FF120000016E6FF1
:102812006EC0C8FF12006EC0E1F06FC0E2F012009D
:102822006EC0E3F06FC0E4F012006EC0DBF06FC068
:10283200DCF012006EC0DDF06FC0DEF01200026E3E
:1028420002509EEC13F01200026E025038EC14F0AB
:1028520012004AEC14F00001E86F12004EEC14F082
:102862000001E76F12005C5038EC14F01200016EA8
:1028720001C0C9FF1200DAEC13F012004AEC14F0A6
:102882001200D09E12009D861200C5821200C688D8
:102892001200C95012009E961200C8501200120077
:020000040020DA
:08000000FFFFFFFFFFFFFFFF00
:020000040030CA
:0E00000015027F7CFF8991FF0FC00FE00F40BB
:00000001FF
