:020000040000FA
:0400000043EF00F0DA
:100008002A82FACF1BF0FBCF1CF0F2AC0EEF00F007
:1000180010EF00F03DEF00F0A0A615EF00F017EF8D
:1000280000F02DEF00F0A1A61CEF00F01EEF00F08D
:100038002DEF00F002D82BEF00F00500FA6E0F50FC
:10004800FD6E1050FE6EF850FF6EFA5012003DEF34
:1000580000F09DA632EF00F034EF00F03DEF00F025
:100068009EA639EF00F03BEF00F03DEF00F01EEFE9
:1000780000F01CC0FBFF1BC0FAFF2A921100ACEF76
:1000880001F06CEC02F06EEC02F0136EF0EC01F093
:100098000009D8B452EF00F054EF00F058EF00F028
:1000A800010E166E8EEF00F0020E166E8EEF00F047
:1000B800DCEC01F00009D8A464EF00F066EF00F072
:1000C8006AEF00F044EC01F06EEF00F02DEC01F067
:1000D80068EC02F0000E156EA3EF00F0FAEC01F0E8
:1000E8000009D8B47AEF00F07CEF00F08AEF00F056
:1000F800E6EC01F00009D8B484EF00F086EF00F0D8
:10010800A3EF00F05BEC01F0A3EF00F072EC01F05C
:100118006EEF00F01650196E1A6A1A50000AD8B419
:1001280098EF00F0A3EF00F01950010AD8B45CEF83
:1001380000F0030AD8B472EF00F0A3EF00F015C086
:1001480016F06AEC02F012009DEC01F00A0E4FEC7A
:1001580002F07F0E4BEC02F08A0E1D6E000E1E6E32
:1001680033EC02F0000E1D6E000E1E6E38EC02F02D
:10017800A60E1D6E040E1E6E24EC02F0AE0E1D6E51
:10018800040E1E6E2EEC02F0B60E1D6E040E1E6ED0
:100198003DEC02F0E40E1D6E040E1E6E29EC02F01A
:1001A80066EC02F01200080EA76E900EAB6E240EDD
:1001B800AC6E080EAF6E020E7D6E000E1D6E000E48
:1001C8001E6E1AEC02F0000E1D6E000E1E6E15EC6F
:1001D80002F0000E1D6E000E1E6E1FEC02F0000EE7
:1001E800116E1200216E21C01FF01F461F46C2501B
:1001F8001F18830B1F18C26EC280C282C2B207EFDB
:1002080001F009EF01F002EF01F0C450206E1F6AFF
:10021800C3501F241D6E000E20201E6E1200C586BE
:10022800B9EC01F0A20E1D6E030E1E6E3DEC02F03D
:10023800F28EF28CA8EC00F0000EF6EC00F01DC077
:1002480001F01EC002F0036A046A20EF01F043EFD8
:1002580000F007500810D8B434EF01F036EF01F081
:1002680043EF01F002D843EF01F00500FA6E0750A2
:10027800FD6E0850FE6EF850FF6EFA501200120024
:100288000B500C10D8B44BEF01F04DEF01F05AEFC2
:1002980001F002D85AEF01F00500FA6E0B50FD6E1E
:1002A8000C50FE6EF850FF6EFA50120012000D50FE
:1002B8000E10D8B462EF01F064EF01F071EF01F0B5
:1002C80002D871EF01F00500FA6E0D50FD6E0E5068
:1002D800FE6EF850FF6EFA501200120028502910D6
:1002E800D8B479EF01F07BEF01F088EF01F002D884
:1002F80088EF01F00500FA6E2850FD6E2950FE6E59
:10030800F850FF6EFA5012001200000E896E000EAF
:100318008A6E000E8B6EEF0E926E9368BF0E946E0F
:100328001F0E0F015D6F070E5C6F000E5B6FF18E85
:100338001200C6BAA2EF01F0A4EF01F0ABEF01F092
:10034800000EC76E160EC612000EC56EC68A1200C3
:1003580000EE01F0160EEE6AE806FDE12A902A92F8
:10036800000EF86E000113EF01F047EC02F00DECFF
:1003780002F089EC01F004EC02F0C6EC01F0D7ECD5
:1003880000F01200010EC26E100EC16E800EC06E1B
:10039800000EC46E000EC36E120063EC02F063EC34
:1003A80002F0015042EC02F0015042EC02F012005F
:1003B800C6BEE1EF01F0E4EF01F0010EE5EF01F058
:1003C800000E1200C7B0EBEF01F0EEEF01F0010EE6
:1003D800EFEF01F0000E1200C7B4F5EF01F0F8EFEF
:1003E80001F0010EF9EF01F0000E1200C7BAFFEF9D
:1003F80001F002EF02F0010E03EF02F0000E12000E
:10040800600ED36E000ED26E000E9B6E000E9A6EBA
:100418001200000EC76E160EC612000EC56EC69AE2
:1004280012001DC024F01EC025F012001DC026F0C9
:100438001EC027F012001DC022F01EC023F01200BB
:100448001DC00BF01EC00CF012001DC007F01EC02E
:1004580008F012001DC00DF01EC00EF012001DC0E5
:100468000FF01EC010F012001DC009F01EC00AF0E7
:1004780012001DC028F01EC029F01200186E185076
:100488005FEC02F01200D09EA0509D5012001D6E2D
:100498001DC0C8FF12001D6E1DC0C8FF12001450F9
:1004A8005FEC02F012006EEC02F0136E120070ECBA
:1004B80002F0126E1200176E17C0C9FF12006EEC20
:1004C80002F012009D861200C5821200C688120032
:0E04D8009E961200C9501200C8501200120069
:020000040020DA
:08000000FFFFFFFFFFFFFFFF00
:020000040030CA
:0E00000015027F7CFF8991FF0FC00FE00F40BB
:00000001FF
